S01A0000554152545F436F6D6D756E69636174696F6E2E7372656319
S11300000C9434000C9446000C9446000C94460066
S11300100C9446000C9446000C9446000C94460044
S11300200C9446000C9446000C9446000C94460034
S11300300C9446000C9446000C9446000C94460024
S11300400C94D0000C9446000C9492000C9446003E
S11300500C94B0000C9446000C9446000C9446009A
S11300600C9446000C94460011241FBECFEFD8E038
S1130070DEBFCDBF28E0A0E0B1E001C01D92A43DE9
S1130080B207E1F70E9489000C94EA000C94000086
S113009085E085BD81E080936E0008951092C500CF
S11300A087E68093C40088ED8093C10086E0809346
S11300B0C2000895E091010181E08E0F8093010157
S11300C0F0E0E451FB4F80818093C6000895809155
S11300D002018130D9F48091010140910301841718
S11300E0A8F490E009C0FC01EC5FFE4F2081FC0104
S11300F0E451FB4F20830196242F30E082179307AD
S113010094F3109202010E945A0008951092020181
S11301100895F8940E944E000E94480078940E942A
S11301206700FDCF1F920F920FB60F9211248F9389
S1130130EF93FF93E091030181E08E0F809303011D
S1130140F0E08091C600EC5FFE4F808310920001C6
S1130150FF91EF918F910F900FBE0F901F90189504
S11301601F920F920FB60F9211248F93EF93FF9368
S1130170E091010180910301E81750F481E08E0FB2
S113018080930101F0E0E451FB4F80818093C6002D
S1130190FF91EF918F910F900FBE0F901F901895C4
S11301A01F920F920FB60F9211248F93809100012A
S11301B08E3328F01092000181E080930201809137
S11301C000018F5F809300018F910F900FBE0F90FD
S10B01D01F901895F894FFCF6D
S9030000FC
