:100000000C9434000C943E000C943E000C943E0082
:100010000C943E000C943E000C943E000C943E0068
:100020000C943E000C943E000C943E000C943E0058
:100030000C943E000C943E000C943E000C943E0048
:100040000C943E000C943E000C943E000C943E0038
:100050000C943E000C943E000C943E000C943E0028
:100060000C943E000C943E0011241FBECFEFD8E04C
:10007000DEBFCDBF0E947D000C9488000C94000070
:100080001092C50087E68093C40088E18093C10088
:1000900086E08093C2000895F999FECF90E092BD6A
:1000A00081BD8FB381608FBB80B50895F999FECF74
:1000B00090E092BD81BD60BD8FB384608FBB8FB374
:1000C00082608FBB08959091C00095FFFCCF809314
:1000D000C60008958091C0008823E4F78091C6008F
:1000E00008950E946A00682F80E00E94560080E018
:1000F0000E944C000E94630008950E94400082B557
:10010000816082BD81B5816081BD0E947100FDCF9B
:04011000F894FFCF91
:00000001FF
