:1000000033C000004CC000004AC0000048C00000DF
:1000100046C0000044C0000042C0000040C00000D4
:100020003EC000003CC000003AC0000038C00000E4
:1000300036C0000034C0000032C0000030C00000F4
:100040002EC000002CC000002AC0000028C0000004
:1000500026C0000024C0000022C0000020C0000014
:100060001EC000001CC0000011241FBECFEFD8E04E
:10007000DEBFCDBF18E0A0E0B1E0E8E9F8E002C0E3
:1000800005900D92AA30B107D9F728E0AAE0B8E0B0
:1000900001C01D92AA30B207E1F7ACD3FBC3B0CFC9
:1000A00061E082E0D4D261E084E0D1D261E086E018
:1000B000CED261E088E0CBD261E083E0C8D261E0DB
:1000C00085E0C5D261E087E0C2C2089560E082E0C9
:1000D000BED260E084E0BBD260E086E0B8D260E0EF
:1000E00088E0B5D260E083E0B2D260E085E0AFD2D4
:1000F00060E087E0ACC20895CF93DF93EC010097F6
:1001000029F4CEDF60E085E0A2D215C081309105F0
:1001100041F4DCDF61E082E09AD261E088E097D2CE
:1001200015C0029741F4BCDF60E084E090D260E04B
:1001300088E08DD219C0C330D10541F4B1DF60E051
:1001400084E085D260E086E082D219C0C430D10557
:1001500059F4A6DF60E083E07AD260E086E077D2EF
:1001600060E087E074D213C0C530D10541F498DF58
:1001700060E082E06CD260E086E069D216C0C630F2
:10018000D10529F48DDF60E082E061D213C0C73071
:10019000D10559F49BDF61E082E059D261E083E050
:1001A00056D261E088E053D20BC0C830D10511F4BB
:1001B00077DF06C0299721F473DF60E086E047D23D
:1001C000DF91CF9108958F929F92AF92BF92CF927D
:1001D000DF92EF92FF920F931F93CF93DF93CDB7F0
:1001E000DEB79C01EDB6FEB6181619060CF05AC023
:1001F000E0E0F0E00F2EFAE0CF2ED12CF02D01C080
:10020000F801B60120D3CB018F010F5F1F4F1816E5
:100210001906B4F3C801880F991F4DB75EB7481B84
:10022000590B0FB6F8945EBF0FBE4DBF8DB79EB78A
:1002300001965C01FF23ECF06F01CC0CDD1C92E019
:10024000C90ED11CCA0CDB1C0F2EFAE08F2E912C8C
:10025000F02DC901B401F7D2D6019E938E936D01A2
:10026000A901481B590BCA01B401EDD29B0131977A
:1002700080F710161106B4F46501000F111F0A0D66
:100280001B1DD6018D919D916D0136DFBFEFEFE013
:10029000F7E2B150E040F040E1F700C000000C157B
:1002A0001D0579F713DF0FB6F894FEBE0FBEEDBE45
:1002B000DF91CF911F910F91FF90EF90DF90CF9042
:1002C000BF90AF909F908F90089500DF812C912C6C
:1002D000CC24C394D12CAA24A394B12CC0E0D0E0A8
:1002E00000E011E022242394312C412C512C0F2EBC
:1002F000FAE0EF2EF12CF02D04C0909301018093D1
:10030000000161E0F8018081A2D1612C712C86B1DD
:1003100090E0062C02C0959587950A94E2F780FF3D
:10032000A6C0F3E06F167104ECF480910001909187
:1003300001010A9783309105ACF49E01220F331F0F
:10034000CC0FDD1FCC0FDD1FCC0FDD1FC20FD31F65
:100350009C01220F331F820F931F0196860D971D5C
:10036000C80FD91F23E062167104D9F5209100014E
:1003700030910101C9010B970297D0F4CA94CD289E
:1003800049F4F501EC9F5001ED9FB00CFC9FB00CBF
:10039000112404C0C501BE0156D25B01922D832DEC
:1003A0002C30310511F4942D852DC92ED82E79C00D
:1003B000CA94CD2841F4CA9DB001CB9D700DDA9D41
:1003C000700D112403C0C501BE013DD2860E971EDB
:1003D0002A303105E1F1C22CD32CAA24A394B12CEC
:1003E00060C080910001909101010D97B9F521E065
:1003F0006216710461F4CE01880F991FCC0FDD1FC6
:10040000CC0FDD1FCC0FDD1FC80FD91F27C082E026
:100410006816710419F5CA94CD2841F4CA9DB0013B
:10042000CB9D700DDA9D700D112403C0C501BE0176
:100430000AD2CB01880D991DC6DE812C912CC22CCD
:10044000D32CAA24A394B12CC42DD52D07C0C22C23
:10045000D32CAA24AA94BA2CC42DD52D9FEFE9E65B
:10046000F8E19150E040F040E1F700C000002FEFCC
:10047000621A720A84E06816710409F048CF60E0DD
:10048000F8018081E4D080910001909101010196F2
:100490008E30910509F031CFF0920101E092000118
:1004A00030CFC42DD52DDACF90910501891741F0B9
:1004B000E9E6F1E021E030E090819813BFC002C08E
:1004C00020E030E061115BC084E6829FF001839FF1
:1004D000F00D1124EE5FFE4F8481882309F4B6C02D
:1004E00084E6829FF001839FF00D1124EE5FFE4FA2
:1004F0008181823061F494B184E6829FF001839F10
:10050000F00D1124EE5FFE4F8281892784B984E6C5
:10051000829FF001839FF00D1124EE5FFE4F8181D9
:10052000833061F497B184E6829FF001839FF00DE0
:100530001124EE5FFE4F8281892787B984E6829F6E
:10054000F001839FF00D1124EE5FFE4F8181843016
:1005500061F49AB184E6829FF001839FF00D11242B
:10056000EE5FFE4F828189278AB984E6829FF0017F
:10057000839FF00D1124EE5FFE4F148208956130C9
:1005800009F064C084E6829FF001839FF00D11247E
:10059000EE5FFE4F8481813009F458C084E6829F6B
:1005A000F001839FF00D1124EE5FFE4F81818230B8
:1005B00061F494B184E6829FF001839FF00D1124D1
:1005C000EE5FFE4F8281892B84B984E6829FF00121
:1005D000839FF00D1124EE5FFE4F8181833061F423
:1005E00097B184E6829FF001839FF00D1124EE5FA6
:1005F000FE4F8281892B87B984E6829FF001839F19
:10060000F00D1124EE5FFE4F8181843061F49AB1C8
:1006100084E6829FF001839FF00D1124EE5FFE4F70
:100620008281892B8AB984E6829FF001839FF00D35
:100630001124EE5FFE4F81E0848308952F5F3F4FCA
:10064000EC59FF4F2231310509F036CF08959091D2
:100650000501891741F0E9E6F1E021E030E0908101
:100660009813BFC002C020E030E061115BC084E697
:10067000829FF001839FF00D1124EE5FFE4F858174
:10068000882309F4B6C084E6829FF001839FF00DB1
:100690001124EE5FFE4F8181823061F495B184E6D2
:1006A000829FF001839FF00D1124EE5FFE4F828147
:1006B000892785B984E6829FF001839FF00D11247C
:1006C000EE5FFE4F8181833061F498B184E6829FB2
:1006D000F001839FF00D1124EE5FFE4F8281892788
:1006E00088B984E6829FF001839FF00D1124EE5FAC
:1006F000FE4F8181843061F49BB184E6829FF001DA
:10070000839FF00D1124EE5FFE4F828189278BB904
:1007100084E6829FF001839FF00D1124EE5FFE4F6F
:1007200015820895613009F064C084E6829FF0016B
:10073000839FF00D1124EE5FFE4F8581813009F417
:1007400058C084E6829FF001839FF00D1124EE5F74
:10075000FE4F8181823061F495B184E6829FF00181
:10076000839FF00D1124EE5FFE4F8281892B85B9A6
:1007700084E6829FF001839FF00D1124EE5FFE4F0F
:100780008181833061F498B184E6829FF001839F78
:10079000F00D1124EE5FFE4F8281892B88B984E62B
:1007A000829FF001839FF00D1124EE5FFE4F818147
:1007B000843061F49BB184E6829FF001839FF00D49
:1007C0001124EE5FFE4F8281892B8BB984E6829FD4
:1007D000F001839FF00D1124EE5FFE4F81E08583D1
:1007E00008952F5F3F4FEC59FF4F2231310509F03B
:1007F00036CF089561E082E057DE61E083E054DEA9
:1008000061E084E051DE61E085E04EDE61E086E09B
:100810004BDE61E087E048DE61E088E045DE61E0D4
:1008200089E042DE61E08AE03FDE61E08BE03CDEB1
:1008300061E08CE039DE61E08DE036DE31DC45DD03
:1008400080E090E0089597FB072E16F4009406D000
:1008500077FD08D00BD007FC05D03EF4909581952C
:100860009F4F0895709561957F4F0895AA1BBB1BFC
:1008700051E107C0AA1FBB1FA617B70710F0A61BA0
:10088000B70B881F991F5A95A9F780959095BC01C1
:08089000CD010895F894FFCF9B
:100898000A00000401000000000000000000000041
:1008A8000000000000000000000000000000000040
:1008B8000000000000000000000000000000000030
:1008C8000000000000000000000000000000000020
:1008D8000000000000000000000000000000000010
:1008E8000000000000000000000000000000000000
:1008F80000000000000001040201000000000000E8
:1009080000000000000000000000000000000000DF
:1009180000000000000000000000000000000000CF
:1009280000000000000000000000000000000000BF
:1009380000000000000000000000000000000000AF
:10094800000000000000000000000000000000009F
:100958000000000000000000000002040402000083
:10096800000000000000000000000000000000007F
:10097800000000000000000000000000000000006F
:10098800000000000000000000000000000000005F
:10099800000000000000000000000000000000004F
:1009A800000000000000000000000000000000003F
:1009B8000000000000000000000000000000030428
:1009C8000803000000000000000000000000000014
:1009D800000000000000000000000000000000000F
:1009E80000000000000000000000000000000000FF
:1009F80000000000000000000000000000000000EF
:100A080000000000000000000000000000000000DE
:100A180000000000000000000000000000000000CE
:100A280000000404100400000000000000000000A2
:100A380000000000000000000000000000000000AE
:100A4800000000000000000000000000000000009E
:100A5800000000000000000000000000000000008E
:100A6800000000000000000000000000000000007E
:100A7800000000000000000000000000000000006E
:100A88000000000000000504200500000000000030
:100A9800000000000000000000000000000000004E
:100AA800000000000000000000000000000000003E
:100AB800000000000000000000000000000000002E
:100AC800000000000000000000000000000000001E
:100AD800000000000000000000000000000000000E
:100AE80000000000000000000000060440060000AE
:100AF80000000000000000000000000000000000EE
:100B080000000000000000000000000000000000DD
:100B180000000000000000000000000000000000CD
:100B280000000000000000000000000000000000BD
:100B380000000000000000000000000000000000AD
:100B48000000000000000000000000000000070492
:100B58008007000000000000000000000000000006
:100B6800000000000000000000000000000000007D
:100B7800000000000000000000000000000000006D
:100B8800000000000000000000000000000000005D
:100B9800000000000000000000000000000000004D
:100BA800000000000000000000000000000000003D
:100BB800000008020108000000000000000000001A
:100BC800000000000000000000000000000000001D
:100BD800000000000000000000000000000000000D
:100BE80000000000000000000000000000000000FD
:100BF80000000000000000000000000000000000ED
:100C080000000000000000000000000000000000DC
:100C180000000000000009020209000000000000B6
:100C280000000000000000000000000000000000BC
:100C380000000000000000000000000000000000AC
:100C4800000000000000000000000000000000009C
:100C5800000000000000000000000000000000008C
:100C6800000000000000000000000000000000007C
:100C7800000000000000000000000A02040A000052
:100C8800000000000000000000000000000000005C
:100C9800000000000000000000000000000000004C
:100CA800000000000000000000000000000000003C
:100CB800000000000000000000000000000000002C
:100CC800000000000000000000000000000000001C
:100CD80000000000000000000000000000000B02FF
:100CE800080B0000000000000000000000000000E9
:100CF80000000000000000000000000000000000EC
:100D080000000000000000000000000000000000DB
:100D180000000000000000000000000000000000CB
:100D280000000000000000000000000000000000BB
:100D380000000000000000000000000000000000AB
:100D480000000C02100C0000000000000000000071
:100D5800000000000000000000000000000000008B
:100D6800000000000000000000000000000000007B
:100D7800000000000000000000000000000000006B
:100D8800000000000000000000000000000000005B
:100D9800000000000000000000000000000000004B
:100DA8000000000000000D02200D000000000000FF
:100DB800000000000000000000000000000000002B
:100DC800000000000000000000000000000000001B
:100DD800000000000000000000000000000000000B
:100DE80000000000000000000000000000000000FB
:100DF80000000000000000000000000000000000EB
:100E0800000000000000000000000E03010E0000BA
:100E180000000000000000000000000000000000CA
:100E280000000000000000000000000000000000BA
:100E380000000000000000000000000000000000AA
:100E4800000000000000000000000000000000009A
:100E5800000000000000000000000000000000008A
:100E680000000000000000000000000000000F0368
:100E7800020F000000000000000000000000000059
:100E8800000000000000000000000000000000005A
:100E9800000000000000000000000000000000004A
:100EA800000000000000000000000000000000003A
:100EB800000000000000000000000000000000002A
:100EC800000000000000000000000000000000001A
:100ED80000001003041000000000000000000000E3
:100EE80000000000000000000000000000000000FA
:100EF80000000000000000000000000000000000EA
:100F080000000000000000000000000000000000D9
:100F180000000000000000000000000000000000C9
:100F280000000000000000000000000000000000B9
:100F3800000000000000110308110000000000007C
:100F48000000000000000000000000000000000099
:100F58000000000000000000000000000000000089
:100F68000000000000000000000000000000000079
:100F78000000000000000000000000000000000069
:100F88000000000000000000000000000000000059
:0A0F9800000000000000000000004F
:00000001FF
