S013000054496D65725F73657475702E73726563A0
S11300000C9434000C9446000C9446000C94460066
S11300100C9446000C9446000C9446000C94460044
S11300200C9446000C9446000C9446000C94460034
S11300300C9446000C9446000C9446000C94460024
S11300400C9452000C9446000C9446000C94460008
S11300500C9446000C9446000C9446000C94460004
S11300600C9446000C94460011241FBECFEFD8E038
S1130070DEBFCDBF21E0A0E0B1E001C01D92A230FF
S1130080B207E1F70E9448000C9477000C9400003A
S113009084B1806284B985E085BD789481E08093E1
S11300A06E00FFCF1F920F920FB60F9211248F9301
S11300B09F938091000190910101CE9744F010929A
S11300C001011092000195B180E2892785B98091E0
S11300D00001909101010196909301018093000128
S11300E09F918F910F900FBE0F901F901895F894C9
S10500F0FFCF3C
S9030000FC
